:100000000C9434000C9449000C9449000C94490061
:100010000C9449000C9449000C9449000C9449003C
:100020000C9449000C9449000C9449000C9449002C
:100030000C9449000C9449000C9449000C9449001C
:100040000C9449000C9449000C9449000C9449000C
:100050000C9449000C9449000C9449000C944900FC
:100060000C9449000C94490011241FBECFEFD8E036
:10007000DEBFCDBF11E0A0E0B1E0E6EFF5E002C0E9
:1000800005900D92A634B107D9F70E9456010C9441
:10009000F9020C94000085B194E0892785B9089590
:1000A00085B192E0892785B908959C0184E02030CC
:1000B0003807C8F484E0220F331F8A95E1F73067D0
:1000C00085B194E0892785B93EBD0DB407FEFDCF0B
:1000D0008EB581E08EBD0DB407FEFDCF8EB585B126
:1000E00094E0892785B90895482F50E0CA018470AB
:1000F00090709595879595958795866025B132E0A6
:10010000232725B98EBD0DB407FEFDCF8EB596E031
:10011000440F551F9A95E1F74EBD0DB407FEFDCF74
:100120003EB51EBC0DB407FEFDCF2EB585B192E0E5
:10013000892785B9932F80E030E0282B392BC9011E
:10014000089583E58CBD299A2A9A08958EBD0DB431
:1001500007FEFDCF8EB50895239A259A219A229AFB
:10016000209A579A0895DF92EF92FF920F931F9370
:10017000CF93DF93D82EC0E0D0E0EE24FF24870198
:100180008D2D0E94740020E180309207C8F7A0E016
:10019000B0E0E80EF91E0A1F1B1F2196CA30D105D8
:1001A00079F7C801B7012AE030E040E050E00E9452
:1001B000D702CA01B901DF91CF911F910F91FF9032
:1001C000EF90DF900895AF92BF92CF92DF92EF92BF
:1001D000FF920F931F93CF93DF9380E091E00E94F3
:1001E0008A01C0E0D0E0CE010E94550081E00E946B
:1001F000B3007B018C0180E00E94B3005B016C01C5
:10020000C801B7010E943C0281E191E00E948A018D
:10021000C601B5010E943C0285E191E00E948A017D
:10022000219681E0C030D807F1F688E191E00E9484
:100230008A01DF91CF911F910F91FF90EF90DF9096
:10024000CF90BF90AF90089580E00E94B3002091BE
:1002500043013091440144E020303407B0F46E3B58
:1002600046E0740740E0840740E0940718F021500E
:10027000304007C06D5B76408040904031F02F5F8A
:100280003F4F30934401209343018091430190916B
:1002900044010E94550080914301909144010E94C5
:1002A000E20185E191E00E948A010895CF93DF93F6
:1002B0000E9476010E94AC0083E58CBD299A2A9A9F
:1002C00087E291E00E948A01289A5F9A81E00E9469
:1002D000B300C0E0D0E0CE010E945500219681E03D
:1002E000C030D807C1F7F0CF805D08951092C500E7
:1002F00087E68093C40088E18093C1008EE08093FC
:10030000C2000895982F8091C00085FFFCCF909384
:10031000C6000895FC0190818091C00085FFFCCF4C
:100320009093C60031969923B1F708950F931F93C8
:10033000DF93CF9300D00F92CDB7DEB7382FFE01F9
:10034000319683E0DF011D928A95E9F740E0DF01F5
:1003500002E010E010C0832F6AE00E94B702292F4C
:10036000832F0E94B702382FF801E41BF109EA0F2E
:10037000FB1F20834F5F332371F7FD0121E0AE01A6
:100380004C5F5F4F9081992311F020E008C0222339
:1003900031F08E2F8A1B823011F021E007C080914E
:1003A000C00085FFFCCF905D9093C6003196E417A6
:1003B000F50741F70F900F900F90CF91DF911F91AC
:1003C0000F910895CF92DF92EF92FF921F93DF93E8
:1003D000CF9300D000D00F92CDB7DEB79C01FE01C5
:1003E000319685E0DF011D928A95E9F710E07F01E3
:1003F00084E0C82ED12C13C0C9016AE070E00E94CD
:10040000C302482FC9016AE070E00E94C3029B0149
:10041000F601E11BF109EE0DFF1D40831F5F211561
:10042000310551F7F70121E0AE014A5F5F4F90813E
:10043000992311F020E008C0222331F08E2F8E196D
:10044000843011F021E007C08091C00085FFFCCF0F
:10045000905D9093C6003196E417F50741F70F9031
:100460000F900F900F900F90CF91DF911F91FF9001
:10047000EF90DF90CF9008958F929F92AF92BF92AE
:10048000CF92DF92EF92FF920F931F93DF93CF9360
:10049000CDB7DEB72A970FB6F894DEBF0FBECDBF3B
:1004A0006B017C01FE0131968AE0DF011D928A9585
:1004B000E9F700E05F0199E0892E912C1CC0C7018B
:1004C000B6012AE030E040E050E00E94D702162F4B
:1004D000C701B6012AE030E040E050E00E94D702B8
:1004E000C901DA016C017D01F401E01BF109EA0D9B
:1004F000FB1D10830F5FC114D104E104F104F9F670
:10050000F50121E0AE01455F5F4F9081992311F025
:1005100020E008C0222331F08E2F8A19893011F093
:1005200021E007C08091C00085FFFCCF905D9093D3
:10053000C6003196E417F50741F72A960FB6F894EE
:10054000DEBF0FBECDBFCF91DF911F910F91FF9006
:10055000EF90DF90CF90BF90AF909F908F900895D5
:100560008091C00087FFFCCF8091C6000895991B41
:1005700079E004C0991F961708F0961B881F7A959A
:10058000C9F780950895AA1BBB1B51E107C0AA1F9C
:10059000BB1FA617B70710F0A61BB70B881F991F24
:1005A0005A95A9F780959095BC01CD010895A1E2D7
:1005B0001A2EAA1BBB1BFD010DC0AA1FBB1FEE1FDD
:1005C000FF1FA217B307E407F50720F0A21BB30B28
:1005D000E40BF50B661F771F881F991F1A9469F7A4
:1005E00060957095809590959B01AC01BD01CF0100
:0605F0000895F894FFCF0E
:1005F6005374617274696E672053776565700A0D6E
:1006060000202C20000A0D00456E64696E67205399
:10061600776565700A0D00555342204375727665FD
:1006260020547261636572205374617274696E67D7
:060636000A0D00F40100B2
:00000001FF
