:100000000C9434000C9449000C9449000C94490061
:100010000C9449000C9449000C9449000C9449003C
:100020000C9449000C9449000C9449000C9449002C
:100030000C9449000C9449000C9449000C9449001C
:100040000C9449000C9449000C9449000C9449000C
:100050000C9449000C9449000C9449000C944900FC
:100060000C9449000C94490011241FBECFEFD8E036
:10007000DEBFCDBF11E0A0E0B1E0E0EEF2E002C0F3
:1000800005900D92A032B107D9F70E9477000C9429
:100090006E010C94000085B194E0892785B908951C
:1000A0008050944090F485B194E0892785B983E726
:1000B0008EBD0DB407FEFDCF8FEF8EBD0DB407FED4
:1000C000FDCF85B194E0892785B9089581E58CBD80
:1000D000299A2A9A08958EBD0DB407FEFDCF089582
:1000E000239A259A219A229A209A579A08950E9433
:1000F0008C000E94700081E58CBD299A2A9A80E0CC
:1001000091E00E94A000289A5F9A84EF91E00E94FB
:100110005000F9CF805D08951092C50087E6809366
:10012000C40088E18093C1008EE08093C2000895EE
:10013000982F8091C00085FFFCCF9093C600089552
:10014000FC0190818091C00085FFFCCF9093C60098
:1001500031969923B1F708950F931F93DF93CF93AF
:1001600000D00F92CDB7DEB7482FDE011196ECE13B
:10017000F1E083E001900D928150E1F730E0DE0183
:10018000119602E010E010C0842F6AE00E944E0138
:10019000292F842F0E944E01482FF801E31BF109FB
:1001A000EA0FFB1F20833F5F442371F7FD019E018F
:1001B0002C5F3F4F9081992321F48E2F8A1B823030
:1001C00039F48091C00085FFFCCF905D9093C6000C
:1001D0003196E217F30771F70F900F900F90CF91C0
:1001E000DF911F910F910895CF92DF92EF92FF92CE
:1001F0001F93DF93CF9300D000D00F92CDB7DEB71F
:100200009C01FE01319685E0DF011D928A95E9F798
:1002100010E07F0182E0C82ED12C13C0C9016AE032
:1002200070E00E945A01482FC9016AE070E00E9404
:100230005A019B01F601E11BF109EE0DFF1D408300
:100240001F5F2115310551F7F7019E012C5F3F4FCC
:100250009081992321F48E2F8E19823039F4809168
:10026000C00085FFFCCF905D9093C6003196E217E9
:10027000F30771F70F900F900F900F900F90CF91A1
:10028000DF911F91FF90EF90DF90CF9008958091C4
:10029000C00087FFFCCF8091C6000895991B79E0CC
:1002A00004C0991F961708F0961B881F7A95C9F706
:1002B00080950895AA1BBB1B51E107C0AA1FBB1F55
:1002C000A617B70710F0A61BB70B881F991F5A95E2
:1002D000A9F780959095BC01CD010895F894FFCFC2
:1002E000555342204375727665205472616365727E
:1002F000205374617274696E670A0D00000000007B
:00000001FF
