:100000000C9434000C9451000C9451000C94510049
:100010000C9451000C9451000C9451000C9451001C
:100020000C9451000C9451000C9451000C9451000C
:100030000C9451000C9451000C9451000C945100FC
:100040000C9451000C9451000C9451000C945100EC
:100050000C9451000C9451000C9451000C945100DC
:100060000C9451000C94510011241FBECFEFD8E026
:10007000DEBFCDBF11E0A0E0B1E0E0E7F5E002C0F7
:1000800005900D92AC31B107D9F711E0ACE1B1E0C8
:1000900001C01D92AE31B107E1F70E94BD000C9482
:1000A000B6020C940000239A259A219A229A209A4B
:1000B000579A08950F931F9381E060E00E941C02FD
:1000C000182F092F81E061E00E941C02612F702F20
:1000D0001F910F910895CF93DF9381E060E00E941C
:1000E0001C02EC0186E0CE3BD80730F080911C0169
:1000F00090911D01019709C086E0CD3BD80749F0DA
:1001000080911C0190911D01019690931D01809397
:100110001C0180911C0190911D0161E041E00E9451
:10012000410286E0C33CD807C0F6C85BD640A8F2BF
:10013000DF91CF91089509C0019690931D0180939E
:100140001C0161E041E00E94410280911C019091FC
:100150001D0124E08030920778F30E946B008091AB
:100160001C0190911D01019790931D0180931C012A
:1001700061E041E00E944102F2CF0E94D0000E9463
:1001800053000E94110280E091E00E94E4000E946E
:100190006B000E949B00289A5F9AFDCF805D0895B6
:1001A0001092C50087E68093C40088E18093C10067
:1001B0008EE08093C2000895982F8091C00085FF43
:1001C000FCCF9093C6000895FC0190818091C000FF
:1001D00085FFFCCF9093C60031969923B1F708951F
:1001E0000F931F93DF93CF9300D00F92CDB7DEB75D
:1001F000382FFE01319683E0DF011D928A95E9F7E1
:1002000040E0DF0102E010E010C0832F6AE00E94AE
:100210007402292F832F0E947402382FF801E41BE7
:10022000F109EA0FFB1F20834F5F332371F7FD01B4
:1002300021E0AE014C5F5F4F9081992311F020E0E7
:1002400008C0222331F08E2F8A1B823011F021E06A
:1002500007C08091C00085FFFCCF905D9093C600E1
:100260003196E417F50741F70F900F900F90CF915B
:10027000DF911F910F910895CF92DF92EF92FF923D
:100280001F93DF93CF9300D000D00F92CDB7DEB78E
:100290009C01FE01319685E0DF011D928A95E9F708
:1002A00010E07F0184E0C82ED12C13C0C9016AE0A0
:1002B00070E00E948002482FC9016AE070E00E944D
:1002C00080029B01F601E11BF109EE0DFF1D408349
:1002D0001F5F2115310551F7F70121E0AE014A5F9B
:1002E0005F4F9081992311F020E008C0222331F064
:1002F0008E2F8E19843011F021E007C08091C0004C
:1003000085FFFCCF905D9093C6003196E417F5070A
:1003100041F70F900F900F900F900F90CF91DF91BA
:100320001F91FF90EF90DF90CF9008958F929F9252
:10033000AF92BF92CF92DF92EF92FF920F931F93F3
:10034000DF93CF93CDB7DEB72A970FB6F894DEBF11
:100350000FBECDBF6B017C01FE0131968AE0DF014B
:100360001D928A95E9F700E05F0199E0892E912CB2
:100370001CC0C701B6012AE030E040E050E00E9416
:100380009402162FC701B6012AE030E040E050E0A9
:100390000E949402C901DA016C017D01F401E01BA5
:1003A000F109EA0DFB1D10830F5FC114D104E104B4
:1003B000F104F9F6F50121E0AE01455F5F4F908150
:1003C000992311F020E008C0222331F08E2F8A19E2
:1003D000893011F021E007C08091C00085FFFCCF7B
:1003E000905D9093C6003196E417F50741F72A9681
:1003F0000FB6F894DEBF0FBECDBFCF91DF911F9136
:100400000F91FF90EF90DF90CF90BF90AF909F90B3
:100410008F9008958091C00087FFFCCF8091C60027
:10042000089583E58CBD299A2A9A08958EBD0DB44E
:1004300007FEFDCF8EB508950F931F93162F95B12C
:1004400002E0902795B9880F84600E94160211700F
:10045000812F8295880F880F807C0E941602182FAA
:1004600080E00E94160295B1902795B9512F5F70D8
:1004700040E0282F30E0242B352BC9011F910F912C
:1004800008951F93CF93DF93EC0124E0803092070F
:1004900038F585B114E0812785B9862F90E055E0C5
:1004A000880F991F5A95E1F78061242F30E046E0CC
:1004B000220F331F4A95E1F7822B932B9E0196E082
:1004C000369527959A95E1F7822B0E9416029E0198
:1004D000220F220F822F0E94160285B1812785B933
:1004E000DF91CF911F910895991B79E004C0991F66
:1004F000961708F0961B881F7A95C9F7809508957E
:10050000AA1BBB1B51E107C0AA1FBB1FA617B70739
:1005100010F0A61BB70B881F991F5A95A9F7809555
:100520009095BC01CD010895A1E21A2EAA1BBB1B18
:10053000FD010DC0AA1FBB1FEE1FFF1FA217B307AF
:10054000E407F50720F0A21BB30BE40BF50B661FC5
:10055000771F881F991F1A9469F760957095809589
:1005600090959B01AC01BD01CF010895F894FFCF98
:1005700055534220437572766520547261636572EB
:0C058000205374617274696E670A0D00EC
:00000001FF
