:100000000C9434000C9449000C9449000C94490061
:100010000C9449000C9449000C9449000C9449003C
:100020000C9449000C9449000C9449000C9449002C
:100030000C9449000C9449000C9449000C9449001C
:100040000C9449000C9449000C9449000C9449000C
:100050000C9449000C9449000C9449000C944900FC
:100060000C9449000C94490011241FBECFEFD8E036
:10007000DEBFCDBF11E0A0E0B1E0E2E8F3E002C0F6
:1000800005900D92A232B107D9F70E94B3000C94EB
:10009000BF010C94000085B194E0892785B90895CB
:1000A00085B192E0892785B908959C0184E02030CC
:1000B0003807C8F484E0220F331F8A95E1F73067D0
:1000C00085B194E0892785B93EBD0DB407FEFDCF0B
:1000D0008EB581E08EBD0DB407FEFDCF8EB585B126
:1000E00094E0892785B90895482F50E0CA018470AB
:1000F00090709595879595958795866025B132E0A6
:10010000232725B98EBD0DB407FEFDCF8EB596E031
:10011000440F551F9A95E1F74EBD0DB407FEFDCF74
:100120003EB51EBC0DB407FEFDCF2EB585B192E0E5
:10013000892785B9932F80E030E0282B392BC9011E
:10014000089581E58CBD299A2A9A08958EBD0DB433
:1001500007FEFDCF8EB50895239A259A219A229AFB
:10016000209A579A0895CF93DF930E94DD000E9452
:10017000AC0081E58CBD299A2A9A80E091E00E942A
:10018000F10088E096E00E944501289A5F9AC0E05D
:10019000D0E0CE010E94550082E00E9474000E94CF
:1001A00045018CE191E00E94F100219684E0C0308D
:1001B000D80779F7EACF805D08951092C50087E6E9
:1001C0008093C40088E18093C1008EE08093C200D8
:1001D0000895982F8091C00085FFFCCF9093C600B2
:1001E0000895FC0190818091C00085FFFCCF909321
:1001F000C60031969923B1F708950F931F93DF93AB
:10020000CF9300D00F92CDB7DEB7482FDE01119605
:10021000EFE1F1E083E001900D928150E1F730E0F1
:10022000DE01119602E010E010C0842F6AE00E9407
:100230009F01292F842F0E949F01482FF801E31B63
:10024000F109EA0FFB1F20833F5F442371F7FD0193
:100250009E012C5F3F4F9081992321F48E2F8A1BA2
:10026000823039F48091C00085FFFCCF905D90937F
:10027000C6003196E217F30771F70F900F900F90B9
:10028000CF91DF911F910F910895CF92DF92EF925E
:10029000FF921F93DF93CF9300D000D00F92CDB782
:1002A000DEB79C01FE01319685E0DF011D928A9543
:1002B000E9F710E07F0184E0C82ED12C13C0C901FA
:1002C0006AE070E00E94AB01482FC9016AE070E06B
:1002D0000E94AB019B01F601E11BF109EE0DFF1D30
:1002E00040831F5F2115310551F7F7019E012A5FF9
:1002F0003F4F9081992321F48E2F8E19823039F44B
:100300008091C00085FFFCCF905D9093C600319630
:10031000E217F30771F70F900F900F900F900F9067
:10032000CF91DF911F91FF90EF90DF90CF900895D4
:100330008091C00087FFFCCF8091C6000895991B73
:1003400079E004C0991F961708F0961B881F7A95CC
:10035000C9F780950895AA1BBB1B51E107C0AA1FCE
:10036000BB1FA617B70710F0A61BB70B881F991F56
:100370005A95A9F780959095BC01CD010895F89400
:02038000FFCFAD
:1003820055534220437572766520547261636572DB
:10039200205374617274696E670A0D000A0D0000C1
:0203A200000059
:00000001FF
