:100000000C9434000C9449000C9449000C94490061
:100010000C9449000C9449000C9449000C9449003C
:100020000C9449000C9449000C9449000C9449002C
:100030000C9449000C9449000C9449000C9449001C
:100040000C9449000C9449000C9449000C9449000C
:100050000C9449000C9449000C9449000C944900FC
:100060000C9449000C94490011241FBECFEFD8E036
:10007000DEBFCDBF11E0A0E0B1E0E4EEF4E002C0ED
:1000800005900D92A634B107D9F70E94A9000C94EF
:1000900070020C94000085B194E0892785B9089519
:1000A000239A259A219A229A209A579A08951F9363
:1000B0009C0184E02030380798F485B114E0812752
:1000C00085B984E0220F331F8A95E1F73067832FCB
:1000D0000E94000281E00E94000285B1812785B95B
:1000E0001F910895EF92FF920F931F93CF93DF9389
:1000F00080E091E00E94CE00C0E0D0E0CE010E94FE
:10010000570081E061E00E9406028C0180E061E01E
:100110000E9406027C01C8010E94260181E191E053
:100120000E94CE00C7010E94260185E191E00E9455
:10013000CE00219681E0C030D80701F788E191E038
:100140000E94CE00DF91CF911F910F91FF90EF9011
:1001500008950E94BA000E9450000E94FB0187E2AD
:1001600091E00E94CE000E947200289A5F9AFDCF13
:10017000805D08951092C50087E68093C40088E1F1
:100180008093C1008EE08093C2000895982F8091E3
:10019000C00085FFFCCF9093C6000895FC019081BC
:1001A0008091C00085FFFCCF9093C60031969923C3
:1001B000B1F708950F931F93DF93CF9300D00F9261
:1001C000CDB7DEB7382FFE01319683E0DF011D92F7
:1001D0008A95E9F740E0DF0102E010E010C0832FCC
:1001E0006AE00E942E02292F832F0E942E02382FB0
:1001F000F801E41BF109EA0FFB1F20834F5F332353
:1002000071F7FD0121E0AE014C5F5F4F90819923B2
:1002100011F020E008C0222331F08E2F8A1B82309B
:1002200011F021E007C08091C00085FFFCCF905DF8
:100230009093C6003196E417F50741F70F900F90A1
:100240000F90CF91DF911F910F910895CF92DF9280
:10025000EF92FF921F93DF93CF9300D000D00F92C5
:10026000CDB7DEB79C01FE01319685E0DF011D921E
:100270008A95E9F710E07F0184E0C82ED12C13C0E5
:10028000C9016AE070E00E943A02482FC9016AE0A1
:1002900070E00E943A029B01F601E11BF109EE0DAC
:1002A000FF1D40831F5F2115310551F7F70121E044
:1002B000AE014A5F5F4F9081992311F020E008C0A2
:1002C000222331F08E2F8E19843011F021E007C0E7
:1002D0008091C00085FFFCCF905D9093C600319661
:1002E000E417F50741F70F900F900F900F900F90C4
:1002F000CF91DF911F91FF90EF90DF90CF90089505
:100300008F929F92AF92BF92CF92DF92EF92FF9225
:100310000F931F93DF93CF93CDB7DEB72A970FB616
:10032000F894DEBF0FBECDBF6B017C01FE0131969C
:100330008AE0DF011D928A95E9F700E05F0199E00C
:10034000892E912C1CC0C701B6012AE030E040E0A4
:1003500050E00E944E02162FC701B6012AE030E09D
:1003600040E050E00E944E02C901DA016C017D01BB
:10037000F401E01BF109EA0DFB1D10830F5FC114AE
:10038000D104E104F104F9F6F50121E0AE01455F85
:100390005F4F9081992311F020E008C0222331F0B3
:1003A0008E2F8A19893011F021E007C08091C0009A
:1003B00085FFFCCF905D9093C6003196E417F5075A
:1003C00041F72A960FB6F894DEBF0FBECDBFCF918E
:1003D000DF911F910F91FF90EF90DF90CF90BF9032
:1003E000AF909F908F9008958091C00087FFFCCFC1
:1003F0008091C600089583E58CBD299A2A9A0895B4
:100400008EBD0DB407FEFDCF8EB508950F931F93DB
:10041000162F95B102E0902795B9880F84600E944D
:100420000002812F86708295880F880F807C179537
:1004300011271795812B0E940002182F80E00E943F
:10044000000295B1902795B9512F40E0282F30E058
:10045000242B352BC9011F910F910895991B79E029
:1004600004C0991F961708F0961B881F7A95C9F744
:1004700080950895AA1BBB1B51E107C0AA1FBB1F93
:10048000A617B70710F0A61BB70B881F991F5A9520
:10049000A9F780959095BC01CD010895A1E21A2E8F
:1004A000AA1BBB1BFD010DC0AA1FBB1FEE1FFF1F18
:1004B000A217B307E407F50720F0A21BB30BE40B68
:1004C000F50B661F771F881F991F1A9469F76095AF
:1004D0007095809590959B01AC01BD01CF01089569
:0404E000F894FFCFBE
:1004E4005374617274696E672053776565700A0D81
:1004F40000202C20000A0D00456E64696E672053AD
:10050400776565700A0D0055534220437572766510
:1005140020547261636572205374617274696E67EA
:060524000A0D00F40100C5
:00000001FF
