:1000000012C01FC01EC01DC01CC01BC01AC019C01A
:1000100018C017C016C015C014C013C012C011C03C
:1000200010C00FC00EC011241FBECFEDCDBF10E019
:10003000A0E6B0E001C01D92A236B107E1F74DD0B5
:100040009DC0DECF88B391E0892788BB089588B32F
:1000500092E0892788BB08951F938050944048F40C
:1000600088B311E0812788BB80E663D088B38127FD
:1000700088BB1F9108958091600090916100ECDF32
:10008000809160009091610023E08F3F920730F4EF
:100090000196909361008093600008951092610032
:1000A00010926000089580E090E0D6DF08950F93ED
:1000B0001F9388B302E0802788BB13E0812F8A95C5
:1000C000F1F780E636D080E034D01A95F1F788B3A6
:1000D000802788BB1F910F910895CF93DF93F894E9
:1000E00012D0789487B3836A87BBBE9881B3886740
:1000F00081BBC09AC19AC2EED4E0C59ABCDFCE01E2
:100100000197F1F7FACF12B885E089B988E18AB989
:100110008EE083B908955D9BFECF8CB90895FC01F4
:1001200080815D9BFECF8CB931968823C9F70895F5
:10013000089520E036E087FF02C0C59A01C0C59847
:10014000C79A932F9A95F1F7C7982F5F283011F02F
:10015000880FF1CF80E090E0089520E097FF02C083
:10016000C59A01C0C598C79AC7982F5F203119F06A
:10017000880F991FF3CF85E090E00895F894FFCFA2
:00000001FF
